{
  "address": "0x5F91e7e8A0BeE46aD3d724318927952D496c96c6",
  "abi": [
    {
      "anonymous": false,
      "inputs": [
        {
          "indexed": false,
          "internalType": "address",
          "name": "user",
          "type": "address"
        },
        {
          "indexed": false,
          "internalType": "uint256",
          "name": "amount",
          "type": "uint256"
        },
        {
          "indexed": false,
          "internalType": "address",
          "name": "account",
          "type": "address"
        }
      ],
      "name": "Deposited",
      "type": "event"
    },
    {
      "anonymous": false,
      "inputs": [
        {
          "indexed": false,
          "internalType": "uint8",
          "name": "version",
          "type": "uint8"
        }
      ],
      "name": "Initialized",
      "type": "event"
    },
    {
      "anonymous": false,
      "inputs": [
        {
          "indexed": true,
          "internalType": "address",
          "name": "previousOwner",
          "type": "address"
        },
        {
          "indexed": true,
          "internalType": "address",
          "name": "newOwner",
          "type": "address"
        }
      ],
      "name": "OwnershipTransferred",
      "type": "event"
    },
    {
      "anonymous": false,
      "inputs": [
        {
          "indexed": false,
          "internalType": "address",
          "name": "account",
          "type": "address"
        },
        {
          "indexed": false,
          "internalType": "uint256",
          "name": "nonce",
          "type": "uint256"
        },
        {
          "indexed": false,
          "internalType": "enum Bridge.TransactionType",
          "name": "txnType",
          "type": "uint8"
        },
        {
          "indexed": false,
          "internalType": "uint256",
          "name": "amount",
          "type": "uint256"
        }
      ],
      "name": "TransactionProcessed",
      "type": "event"
    },
    {
      "inputs": [],
      "name": "bridgeToken",
      "outputs": [
        {
          "internalType": "contract IERC20",
          "name": "",
          "type": "address"
        }
      ],
      "stateMutability": "view",
      "type": "function"
    },
    {
      "inputs": [
        {
          "internalType": "uint256",
          "name": "amount",
          "type": "uint256"
        },
        {
          "internalType": "address",
          "name": "account",
          "type": "address"
        }
      ],
      "name": "deposit",
      "outputs": [],
      "stateMutability": "nonpayable",
      "type": "function"
    },
    {
      "inputs": [
        {
          "internalType": "bytes32",
          "name": "_messageHash",
          "type": "bytes32"
        }
      ],
      "name": "getEthSignedMessageHash",
      "outputs": [
        {
          "internalType": "bytes32",
          "name": "",
          "type": "bytes32"
        }
      ],
      "stateMutability": "pure",
      "type": "function"
    },
    {
      "inputs": [
        {
          "internalType": "address",
          "name": "account",
          "type": "address"
        },
        {
          "internalType": "uint256",
          "name": "nonce",
          "type": "uint256"
        },
        {
          "internalType": "enum Bridge.TransactionType",
          "name": "txnType",
          "type": "uint8"
        },
        {
          "internalType": "uint256",
          "name": "amount",
          "type": "uint256"
        }
      ],
      "name": "getMessageHash",
      "outputs": [
        {
          "internalType": "bytes32",
          "name": "",
          "type": "bytes32"
        }
      ],
      "stateMutability": "view",
      "type": "function"
    },
    {
      "inputs": [
        {
          "internalType": "contract IERC20",
          "name": "_bridgeToken",
          "type": "address"
        },
        {
          "internalType": "address",
          "name": "validator",
          "type": "address"
        }
      ],
      "name": "initialize",
      "outputs": [],
      "stateMutability": "nonpayable",
      "type": "function"
    },
    {
      "inputs": [],
      "name": "owner",
      "outputs": [
        {
          "internalType": "address",
          "name": "",
          "type": "address"
        }
      ],
      "stateMutability": "view",
      "type": "function"
    },
    {
      "inputs": [
        {
          "internalType": "address",
          "name": "account",
          "type": "address"
        },
        {
          "internalType": "uint256",
          "name": "nonce",
          "type": "uint256"
        },
        {
          "internalType": "enum Bridge.TransactionType",
          "name": "txnType",
          "type": "uint8"
        },
        {
          "internalType": "uint256",
          "name": "amount",
          "type": "uint256"
        },
        {
          "internalType": "bytes[]",
          "name": "signatures",
          "type": "bytes[]"
        }
      ],
      "name": "processTransaction",
      "outputs": [],
      "stateMutability": "nonpayable",
      "type": "function"
    },
    {
      "inputs": [
        {
          "internalType": "bytes32",
          "name": "_ethSignedMessageHash",
          "type": "bytes32"
        },
        {
          "internalType": "bytes",
          "name": "_signature",
          "type": "bytes"
        }
      ],
      "name": "recoverSigner",
      "outputs": [
        {
          "internalType": "address",
          "name": "",
          "type": "address"
        }
      ],
      "stateMutability": "pure",
      "type": "function"
    },
    {
      "inputs": [],
      "name": "renounceOwnership",
      "outputs": [],
      "stateMutability": "nonpayable",
      "type": "function"
    },
    {
      "inputs": [
        {
          "internalType": "bytes",
          "name": "sig",
          "type": "bytes"
        }
      ],
      "name": "splitSignature",
      "outputs": [
        {
          "internalType": "bytes32",
          "name": "r",
          "type": "bytes32"
        },
        {
          "internalType": "bytes32",
          "name": "s",
          "type": "bytes32"
        },
        {
          "internalType": "uint8",
          "name": "v",
          "type": "uint8"
        }
      ],
      "stateMutability": "pure",
      "type": "function"
    },
    {
      "inputs": [],
      "name": "totalValidators",
      "outputs": [
        {
          "internalType": "uint8",
          "name": "",
          "type": "uint8"
        }
      ],
      "stateMutability": "view",
      "type": "function"
    },
    {
      "inputs": [
        {
          "internalType": "address",
          "name": "newOwner",
          "type": "address"
        }
      ],
      "name": "transferOwnership",
      "outputs": [],
      "stateMutability": "nonpayable",
      "type": "function"
    },
    {
      "inputs": [
        {
          "internalType": "address",
          "name": "",
          "type": "address"
        }
      ],
      "name": "validators",
      "outputs": [
        {
          "internalType": "bool",
          "name": "",
          "type": "bool"
        }
      ],
      "stateMutability": "view",
      "type": "function"
    }
  ],
  "transactionHash": "0x51ee224f3bd74bdec3a081ead9755c96f70adb64483d21e5a9c5b1575ea3e886",
  "args": [],
  "numDeployments": 1,
  "solcInputHash": "43e7a4022bbc614ab111d01f4fe52188",
  "bytecode": "0x608060405234801561001057600080fd5b506121c0806100206000396000f3fe608060405234801561001057600080fd5b50600436106100cf5760003560e01c8063a7bb58031161008c578063f2fde38b11610066578063f2fde38b14610200578063f4734b0c1461021c578063fa52c7d81461023a578063fa5408011461026a576100cf565b8063a7bb580314610194578063abf8cfd6146101c6578063c81b356b146101e2576100cf565b8063225cab95146100d4578063485cc955146101045780636e553f6514610120578063715018a61461013c5780638da5cb5b1461014657806397aba7f914610164575b600080fd5b6100ee60048036038101906100e9919061113f565b61029a565b6040516100fb91906111bf565b60405180910390f35b61011e60048036038101906101199190611218565b6102dc565b005b61013a60048036038101906101359190611258565b6104d1565b005b6101446105b3565b005b61014e6105c7565b60405161015b91906112a7565b60405180910390f35b61017e60048036038101906101799190611434565b6105f1565b60405161018b91906112a7565b60405180910390f35b6101ae60048036038101906101a99190611490565b610660565b6040516101bd939291906114f5565b60405180910390f35b6101e060048036038101906101db9190611612565b6106c8565b005b6101ea610d30565b6040516101f791906116a9565b60405180910390f35b61021a600480360381019061021591906116c4565b610d43565b005b610224610dc6565b6040516102319190611750565b60405180910390f35b610254600480360381019061024f91906116c4565b610dec565b6040516102619190611786565b60405180910390f35b610284600480360381019061027f91906117a1565b610e0c565b60405161029191906111bf565b60405180910390f35b6000848484846102a8610e3c565b6040516020016102bc9594939291906118d5565b604051602081830303815290604052805190602001209050949350505050565b60008060019054906101000a900460ff1615905080801561030d5750600160008054906101000a900460ff1660ff16105b8061033a575061031c30610e49565b1580156103395750600160008054906101000a900460ff1660ff16145b5b610379576040517f08c379a0000000000000000000000000000000000000000000000000000000008152600401610370906119b7565b60405180910390fd5b60016000806101000a81548160ff021916908360ff16021790555080156103b6576001600060016101000a81548160ff0219169083151502179055505b82606560006101000a81548173ffffffffffffffffffffffffffffffffffffffff021916908373ffffffffffffffffffffffffffffffffffffffff1602179055506001606760006101000a81548160ff021916908360ff1602179055506001606860008473ffffffffffffffffffffffffffffffffffffffff1673ffffffffffffffffffffffffffffffffffffffff16815260200190815260200160002060006101000a81548160ff021916908315150217905550610473610e6c565b80156104cc5760008060016101000a81548160ff0219169083151502179055507f7f26b83ff96e1f2b6a682f133852f6798a09c465da95921460cefb384740249860016040516104c39190611a12565b60405180910390a15b505050565b606560009054906101000a900473ffffffffffffffffffffffffffffffffffffffff1673ffffffffffffffffffffffffffffffffffffffff166323b872dd3330856040518463ffffffff1660e01b815260040161053093929190611a3c565b6020604051808303816000875af115801561054f573d6000803e3d6000fd5b505050506040513d601f19601f820116820180604052508101906105739190611a9f565b507fb4e1304f97b5093610f51b33ddab6622388422e2dac138b0d32f93dcfbd39edf3383836040516105a793929190611acc565b60405180910390a15050565b6105bb610ec5565b6105c56000610f43565b565b6000603360009054906101000a900473ffffffffffffffffffffffffffffffffffffffff16905090565b60008060008061060085610660565b925092509250600186828585604051600081526020016040526040516106299493929190611b03565b6020604051602081039080840390855afa15801561064b573d6000803e3d6000fd5b50505060206040510351935050505092915050565b600080600060418451146106a9576040517f08c379a00000000000000000000000000000000000000000000000000000000081526004016106a090611b94565b60405180910390fd5b6020840151925060408401519150606084015160001a90509193909250565b60016002606760009054906101000a900460ff166106e69190611c12565b6106f09190611c43565b60ff1681511015610736576040517f08c379a000000000000000000000000000000000000000000000000000000000815260040161072d90611cea565b60405180910390fd5b606660008673ffffffffffffffffffffffffffffffffffffffff1673ffffffffffffffffffffffffffffffffffffffff168152602001908152602001600020548410156107b8576040517f08c379a00000000000000000000000000000000000000000000000000000000081526004016107af90611d56565b60405180910390fd5b600080600090505b82518110156109dc5760006107d78888888861029a565b905060006107e482610e0c565b9050600061080c828786815181106107ff576107fe611d76565b5b60200260200101516105f1565b905060001515606960008c73ffffffffffffffffffffffffffffffffffffffff1673ffffffffffffffffffffffffffffffffffffffff16815260200190815260200160002060008b815260200190815260200160002060008373ffffffffffffffffffffffffffffffffffffffff1673ffffffffffffffffffffffffffffffffffffffff16815260200190815260200160002060009054906101000a900460ff16151514801561090c575060011515606860008373ffffffffffffffffffffffffffffffffffffffff1673ffffffffffffffffffffffffffffffffffffffff16815260200190815260200160002060009054906101000a900460ff161515145b156109c657848061091c90611da5565b9550506001606960008c73ffffffffffffffffffffffffffffffffffffffff1673ffffffffffffffffffffffffffffffffffffffff16815260200190815260200160002060008b815260200190815260200160002060008373ffffffffffffffffffffffffffffffffffffffff1673ffffffffffffffffffffffffffffffffffffffff16815260200190815260200160002060006101000a81548160ff0219169083151502179055505b50505080806109d490611da5565b9150506107c0565b5060016002606760009054906101000a900460ff166109fb9190611c12565b610a059190611c43565b60ff16811015610a4a576040517f08c379a0000000000000000000000000000000000000000000000000000000008152600401610a4190611e39565b60405180910390fd5b600185610a579190611e59565b606660008873ffffffffffffffffffffffffffffffffffffffff1673ffffffffffffffffffffffffffffffffffffffff1681526020019081526020016000208190555060006002811115610aae57610aad611837565b5b846002811115610ac157610ac0611837565b5b03610b5b576067600081819054906101000a900460ff1680929190610ae590611e8d565b91906101000a81548160ff021916908360ff160217905550506001606860008873ffffffffffffffffffffffffffffffffffffffff1673ffffffffffffffffffffffffffffffffffffffff16815260200190815260200160002060006101000a81548160ff021916908315150217905550610ceb565b60016002811115610b6f57610b6e611837565b5b846002811115610b8257610b81611837565b5b03610c1c576067600081819054906101000a900460ff1680929190610ba690611eb6565b91906101000a81548160ff021916908360ff160217905550506000606860008873ffffffffffffffffffffffffffffffffffffffff1673ffffffffffffffffffffffffffffffffffffffff16815260200190815260200160002060006101000a81548160ff021916908315150217905550610cea565b600280811115610c2f57610c2e611837565b5b846002811115610c4257610c41611837565b5b03610ce957606560009054906101000a900473ffffffffffffffffffffffffffffffffffffffff1673ffffffffffffffffffffffffffffffffffffffff1663a9059cbb87856040518363ffffffff1660e01b8152600401610ca4929190611edf565b6020604051808303816000875af1158015610cc3573d6000803e3d6000fd5b505050506040513d601f19601f82011682018060405250810190610ce79190611a9f565b505b5b5b7f4552d150390a3f9719b57b97499667cf7fe2639cd298473b2a5ac471c565e03486868686604051610d209493929190611f17565b60405180910390a1505050505050565b606760009054906101000a900460ff1681565b610d4b610ec5565b600073ffffffffffffffffffffffffffffffffffffffff168173ffffffffffffffffffffffffffffffffffffffff1603610dba576040517f08c379a0000000000000000000000000000000000000000000000000000000008152600401610db190611fce565b60405180910390fd5b610dc381610f43565b50565b606560009054906101000a900473ffffffffffffffffffffffffffffffffffffffff1681565b60686020528060005260406000206000915054906101000a900460ff1681565b600081604051602001610e1f9190612066565b604051602081830303815290604052805190602001209050919050565b6000804690508091505090565b6000808273ffffffffffffffffffffffffffffffffffffffff163b119050919050565b600060019054906101000a900460ff16610ebb576040517f08c379a0000000000000000000000000000000000000000000000000000000008152600401610eb2906120fe565b60405180910390fd5b610ec3611009565b565b610ecd61106a565b73ffffffffffffffffffffffffffffffffffffffff16610eeb6105c7565b73ffffffffffffffffffffffffffffffffffffffff1614610f41576040517f08c379a0000000000000000000000000000000000000000000000000000000008152600401610f389061216a565b60405180910390fd5b565b6000603360009054906101000a900473ffffffffffffffffffffffffffffffffffffffff16905081603360006101000a81548173ffffffffffffffffffffffffffffffffffffffff021916908373ffffffffffffffffffffffffffffffffffffffff1602179055508173ffffffffffffffffffffffffffffffffffffffff168173ffffffffffffffffffffffffffffffffffffffff167f8be0079c531659141344cd1fd0a4f28419497f9722a3daafe3b4186f6b6457e060405160405180910390a35050565b600060019054906101000a900460ff16611058576040517f08c379a000000000000000000000000000000000000000000000000000000000815260040161104f906120fe565b60405180910390fd5b61106861106361106a565b610f43565b565b600033905090565b6000604051905090565b600080fd5b600080fd5b600073ffffffffffffffffffffffffffffffffffffffff82169050919050565b60006110b182611086565b9050919050565b6110c1816110a6565b81146110cc57600080fd5b50565b6000813590506110de816110b8565b92915050565b6000819050919050565b6110f7816110e4565b811461110257600080fd5b50565b600081359050611114816110ee565b92915050565b6003811061112757600080fd5b50565b6000813590506111398161111a565b92915050565b600080600080608085870312156111595761115861107c565b5b6000611167878288016110cf565b945050602061117887828801611105565b93505060406111898782880161112a565b925050606061119a87828801611105565b91505092959194509250565b6000819050919050565b6111b9816111a6565b82525050565b60006020820190506111d460008301846111b0565b92915050565b60006111e5826110a6565b9050919050565b6111f5816111da565b811461120057600080fd5b50565b600081359050611212816111ec565b92915050565b6000806040838503121561122f5761122e61107c565b5b600061123d85828601611203565b925050602061124e858286016110cf565b9150509250929050565b6000806040838503121561126f5761126e61107c565b5b600061127d85828601611105565b925050602061128e858286016110cf565b9150509250929050565b6112a1816110a6565b82525050565b60006020820190506112bc6000830184611298565b92915050565b6112cb816111a6565b81146112d657600080fd5b50565b6000813590506112e8816112c2565b92915050565b600080fd5b600080fd5b6000601f19601f8301169050919050565b7f4e487b7100000000000000000000000000000000000000000000000000000000600052604160045260246000fd5b611341826112f8565b810181811067ffffffffffffffff821117156113605761135f611309565b5b80604052505050565b6000611373611072565b905061137f8282611338565b919050565b600067ffffffffffffffff82111561139f5761139e611309565b5b6113a8826112f8565b9050602081019050919050565b82818337600083830152505050565b60006113d76113d284611384565b611369565b9050828152602081018484840111156113f3576113f26112f3565b5b6113fe8482856113b5565b509392505050565b600082601f83011261141b5761141a6112ee565b5b813561142b8482602086016113c4565b91505092915050565b6000806040838503121561144b5761144a61107c565b5b6000611459858286016112d9565b925050602083013567ffffffffffffffff81111561147a57611479611081565b5b61148685828601611406565b9150509250929050565b6000602082840312156114a6576114a561107c565b5b600082013567ffffffffffffffff8111156114c4576114c3611081565b5b6114d084828501611406565b91505092915050565b600060ff82169050919050565b6114ef816114d9565b82525050565b600060608201905061150a60008301866111b0565b61151760208301856111b0565b61152460408301846114e6565b949350505050565b600067ffffffffffffffff82111561154757611546611309565b5b602082029050602081019050919050565b600080fd5b600061157061156b8461152c565b611369565b9050808382526020820190506020840283018581111561159357611592611558565b5b835b818110156115da57803567ffffffffffffffff8111156115b8576115b76112ee565b5b8086016115c58982611406565b85526020850194505050602081019050611595565b5050509392505050565b600082601f8301126115f9576115f86112ee565b5b813561160984826020860161155d565b91505092915050565b600080600080600060a0868803121561162e5761162d61107c565b5b600061163c888289016110cf565b955050602061164d88828901611105565b945050604061165e8882890161112a565b935050606061166f88828901611105565b925050608086013567ffffffffffffffff8111156116905761168f611081565b5b61169c888289016115e4565b9150509295509295909350565b60006020820190506116be60008301846114e6565b92915050565b6000602082840312156116da576116d961107c565b5b60006116e8848285016110cf565b91505092915050565b6000819050919050565b600061171661171161170c84611086565b6116f1565b611086565b9050919050565b6000611728826116fb565b9050919050565b600061173a8261171d565b9050919050565b61174a8161172f565b82525050565b60006020820190506117656000830184611741565b92915050565b60008115159050919050565b6117808161176b565b82525050565b600060208201905061179b6000830184611777565b92915050565b6000602082840312156117b7576117b661107c565b5b60006117c5848285016112d9565b91505092915050565b60008160601b9050919050565b60006117e6826117ce565b9050919050565b60006117f8826117db565b9050919050565b61181061180b826110a6565b6117ed565b82525050565b6000819050919050565b61183161182c826110e4565b611816565b82525050565b7f4e487b7100000000000000000000000000000000000000000000000000000000600052602160045260246000fd5b6003811061187757611876611837565b5b50565b600081905061188882611866565b919050565b60006118988261187a565b9050919050565b60008160f81b9050919050565b60006118b78261189f565b9050919050565b6118cf6118ca8261188d565b6118ac565b82525050565b60006118e182886117ff565b6014820191506118f18287611820565b60208201915061190182866118be565b6001820191506119118285611820565b6020820191506119218284611820565b6020820191508190509695505050505050565b600082825260208201905092915050565b7f496e697469616c697a61626c653a20636f6e747261637420697320616c72656160008201527f647920696e697469616c697a6564000000000000000000000000000000000000602082015250565b60006119a1602e83611934565b91506119ac82611945565b604082019050919050565b600060208201905081810360008301526119d081611994565b9050919050565b6000819050919050565b60006119fc6119f76119f2846119d7565b6116f1565b6114d9565b9050919050565b611a0c816119e1565b82525050565b6000602082019050611a276000830184611a03565b92915050565b611a36816110e4565b82525050565b6000606082019050611a516000830186611298565b611a5e6020830185611298565b611a6b6040830184611a2d565b949350505050565b611a7c8161176b565b8114611a8757600080fd5b50565b600081519050611a9981611a73565b92915050565b600060208284031215611ab557611ab461107c565b5b6000611ac384828501611a8a565b91505092915050565b6000606082019050611ae16000830186611298565b611aee6020830185611a2d565b611afb6040830184611298565b949350505050565b6000608082019050611b1860008301876111b0565b611b2560208301866114e6565b611b3260408301856111b0565b611b3f60608301846111b0565b95945050505050565b7f696e76616c6964207369676e6174757265206c656e6774680000000000000000600082015250565b6000611b7e601883611934565b9150611b8982611b48565b602082019050919050565b60006020820190508181036000830152611bad81611b71565b9050919050565b7f4e487b7100000000000000000000000000000000000000000000000000000000600052601260045260246000fd5b7f4e487b7100000000000000000000000000000000000000000000000000000000600052601160045260246000fd5b6000611c1d826114d9565b9150611c28836114d9565b925082611c3857611c37611bb4565b5b828204905092915050565b6000611c4e826114d9565b9150611c59836114d9565b9250828201905060ff811115611c7257611c71611be3565b5b92915050565b7f6d6f7265207468616e2068616c66206f662076616c696461746f7273206e656560008201527f6420746f207369676e0000000000000000000000000000000000000000000000602082015250565b6000611cd4602983611934565b9150611cdf82611c78565b604082019050919050565b60006020820190508181036000830152611d0381611cc7565b9050919050565b7f696e76616c6964206e6f6e636500000000000000000000000000000000000000600082015250565b6000611d40600d83611934565b9150611d4b82611d0a565b602082019050919050565b60006020820190508181036000830152611d6f81611d33565b9050919050565b7f4e487b7100000000000000000000000000000000000000000000000000000000600052603260045260246000fd5b6000611db0826110e4565b91507fffffffffffffffffffffffffffffffffffffffffffffffffffffffffffffffff8203611de257611de1611be3565b5b600182019050919050565b7f696e73756666696369656e742076616c696461746f7273207369676e65640000600082015250565b6000611e23601e83611934565b9150611e2e82611ded565b602082019050919050565b60006020820190508181036000830152611e5281611e16565b9050919050565b6000611e64826110e4565b9150611e6f836110e4565b9250828201905080821115611e8757611e86611be3565b5b92915050565b6000611e98826114d9565b915060ff8203611eab57611eaa611be3565b5b600182019050919050565b6000611ec1826114d9565b915060008203611ed457611ed3611be3565b5b600182039050919050565b6000604082019050611ef46000830185611298565b611f016020830184611a2d565b9392505050565b611f118161188d565b82525050565b6000608082019050611f2c6000830187611298565b611f396020830186611a2d565b611f466040830185611f08565b611f536060830184611a2d565b95945050505050565b7f4f776e61626c653a206e6577206f776e657220697320746865207a65726f206160008201527f6464726573730000000000000000000000000000000000000000000000000000602082015250565b6000611fb8602683611934565b9150611fc382611f5c565b604082019050919050565b60006020820190508181036000830152611fe781611fab565b9050919050565b600081905092915050565b7f19457468657265756d205369676e6564204d6573736167653a0a333200000000600082015250565b600061202f601c83611fee565b915061203a82611ff9565b601c82019050919050565b6000819050919050565b61206061205b826111a6565b612045565b82525050565b600061207182612022565b915061207d828461204f565b60208201915081905092915050565b7f496e697469616c697a61626c653a20636f6e7472616374206973206e6f74206960008201527f6e697469616c697a696e67000000000000000000000000000000000000000000602082015250565b60006120e8602b83611934565b91506120f38261208c565b604082019050919050565b60006020820190508181036000830152612117816120db565b9050919050565b7f4f776e61626c653a2063616c6c6572206973206e6f7420746865206f776e6572600082015250565b6000612154602083611934565b915061215f8261211e565b602082019050919050565b6000602082019050818103600083015261218381612147565b905091905056fea2646970667358221220ee09eae049724e96003c096c317682ab02154ef284cd891746ee9f192def47f864736f6c63430008110033",
  "devdoc": {
    "kind": "dev",
    "methods": {
      "owner()": {
        "details": "Returns the address of the current owner."
      },
      "renounceOwnership()": {
        "details": "Leaves the contract without owner. It will not be possible to call `onlyOwner` functions anymore. Can only be called by the current owner. NOTE: Renouncing ownership will leave the contract without an owner, thereby removing any functionality that is only available to the owner."
      },
      "transferOwnership(address)": {
        "details": "Transfers ownership of the contract to a new account (`newOwner`). Can only be called by the current owner."
      }
    },
    "version": 1
  },
  "userdoc": {
    "kind": "user",
    "methods": {
      "totalValidators()": {
        "notice": "This variable store the total validators in the sidechain"
      },
      "validators(address)": {
        "notice": "This mapping tells us if an sidechain account is a validator or not"
      }
    },
    "version": 1
  },
  "storageLayout": {
    "storage": [
      {
        "astId": 138,
        "contract": "contracts/Bridge.sol:Bridge",
        "label": "_initialized",
        "offset": 0,
        "slot": "0",
        "type": "t_uint8"
      },
      {
        "astId": 141,
        "contract": "contracts/Bridge.sol:Bridge",
        "label": "_initializing",
        "offset": 1,
        "slot": "0",
        "type": "t_bool"
      },
      {
        "astId": 625,
        "contract": "contracts/Bridge.sol:Bridge",
        "label": "__gap",
        "offset": 0,
        "slot": "1",
        "type": "t_array(t_uint256)50_storage"
      },
      {
        "astId": 10,
        "contract": "contracts/Bridge.sol:Bridge",
        "label": "_owner",
        "offset": 0,
        "slot": "51",
        "type": "t_address"
      },
      {
        "astId": 130,
        "contract": "contracts/Bridge.sol:Bridge",
        "label": "__gap",
        "offset": 0,
        "slot": "52",
        "type": "t_array(t_uint256)49_storage"
      },
      {
        "astId": 713,
        "contract": "contracts/Bridge.sol:Bridge",
        "label": "bridgeToken",
        "offset": 0,
        "slot": "101",
        "type": "t_contract(IERC20)704"
      },
      {
        "astId": 718,
        "contract": "contracts/Bridge.sol:Bridge",
        "label": "nextNonce",
        "offset": 0,
        "slot": "102",
        "type": "t_mapping(t_address,t_uint256)"
      },
      {
        "astId": 721,
        "contract": "contracts/Bridge.sol:Bridge",
        "label": "totalValidators",
        "offset": 0,
        "slot": "103",
        "type": "t_uint8"
      },
      {
        "astId": 726,
        "contract": "contracts/Bridge.sol:Bridge",
        "label": "validators",
        "offset": 0,
        "slot": "104",
        "type": "t_mapping(t_address,t_bool)"
      },
      {
        "astId": 735,
        "contract": "contracts/Bridge.sol:Bridge",
        "label": "validatorSigned",
        "offset": 0,
        "slot": "105",
        "type": "t_mapping(t_address,t_mapping(t_uint256,t_mapping(t_address,t_bool)))"
      }
    ],
    "types": {
      "t_address": {
        "encoding": "inplace",
        "label": "address",
        "numberOfBytes": "20"
      },
      "t_array(t_uint256)49_storage": {
        "base": "t_uint256",
        "encoding": "inplace",
        "label": "uint256[49]",
        "numberOfBytes": "1568"
      },
      "t_array(t_uint256)50_storage": {
        "base": "t_uint256",
        "encoding": "inplace",
        "label": "uint256[50]",
        "numberOfBytes": "1600"
      },
      "t_bool": {
        "encoding": "inplace",
        "label": "bool",
        "numberOfBytes": "1"
      },
      "t_contract(IERC20)704": {
        "encoding": "inplace",
        "label": "contract IERC20",
        "numberOfBytes": "20"
      },
      "t_mapping(t_address,t_bool)": {
        "encoding": "mapping",
        "key": "t_address",
        "label": "mapping(address => bool)",
        "numberOfBytes": "32",
        "value": "t_bool"
      },
      "t_mapping(t_address,t_mapping(t_uint256,t_mapping(t_address,t_bool)))": {
        "encoding": "mapping",
        "key": "t_address",
        "label": "mapping(address => mapping(uint256 => mapping(address => bool)))",
        "numberOfBytes": "32",
        "value": "t_mapping(t_uint256,t_mapping(t_address,t_bool))"
      },
      "t_mapping(t_address,t_uint256)": {
        "encoding": "mapping",
        "key": "t_address",
        "label": "mapping(address => uint256)",
        "numberOfBytes": "32",
        "value": "t_uint256"
      },
      "t_mapping(t_uint256,t_mapping(t_address,t_bool))": {
        "encoding": "mapping",
        "key": "t_uint256",
        "label": "mapping(uint256 => mapping(address => bool))",
        "numberOfBytes": "32",
        "value": "t_mapping(t_address,t_bool)"
      },
      "t_uint256": {
        "encoding": "inplace",
        "label": "uint256",
        "numberOfBytes": "32"
      },
      "t_uint8": {
        "encoding": "inplace",
        "label": "uint8",
        "numberOfBytes": "1"
      }
    }
  }
}