{
  "address": "0x07b3406a178284448Fd54147F6982AcE9aF1B645",
  "abi": [
    {
      "anonymous": false,
      "inputs": [
        {
          "indexed": false,
          "internalType": "contract IERC20",
          "name": "token",
          "type": "address"
        },
        {
          "indexed": false,
          "internalType": "address",
          "name": "user",
          "type": "address"
        },
        {
          "indexed": false,
          "internalType": "uint256",
          "name": "amount",
          "type": "uint256"
        },
        {
          "indexed": false,
          "internalType": "address",
          "name": "account",
          "type": "address"
        }
      ],
      "name": "Deposited",
      "type": "event"
    },
    {
      "anonymous": false,
      "inputs": [
        {
          "indexed": false,
          "internalType": "uint8",
          "name": "version",
          "type": "uint8"
        }
      ],
      "name": "Initialized",
      "type": "event"
    },
    {
      "anonymous": false,
      "inputs": [
        {
          "indexed": true,
          "internalType": "address",
          "name": "previousOwner",
          "type": "address"
        },
        {
          "indexed": true,
          "internalType": "address",
          "name": "newOwner",
          "type": "address"
        }
      ],
      "name": "OwnershipTransferred",
      "type": "event"
    },
    {
      "anonymous": false,
      "inputs": [
        {
          "indexed": false,
          "internalType": "address",
          "name": "account",
          "type": "address"
        },
        {
          "indexed": false,
          "internalType": "uint256",
          "name": "nonce",
          "type": "uint256"
        },
        {
          "indexed": false,
          "internalType": "enum Bridge.TransactionType",
          "name": "txnType",
          "type": "uint8"
        },
        {
          "indexed": false,
          "internalType": "uint256",
          "name": "amount",
          "type": "uint256"
        },
        {
          "indexed": false,
          "internalType": "contract IERC20",
          "name": "token",
          "type": "address"
        }
      ],
      "name": "TransactionProcessed",
      "type": "event"
    },
    {
      "inputs": [],
      "name": "EPIC",
      "outputs": [
        {
          "internalType": "contract IERC20",
          "name": "",
          "type": "address"
        }
      ],
      "stateMutability": "view",
      "type": "function"
    },
    {
      "inputs": [],
      "name": "USDC",
      "outputs": [
        {
          "internalType": "contract IERC20",
          "name": "",
          "type": "address"
        }
      ],
      "stateMutability": "view",
      "type": "function"
    },
    {
      "inputs": [
        {
          "internalType": "contract IERC20",
          "name": "token",
          "type": "address"
        },
        {
          "internalType": "uint256",
          "name": "amount",
          "type": "uint256"
        },
        {
          "internalType": "address",
          "name": "account",
          "type": "address"
        }
      ],
      "name": "deposit",
      "outputs": [],
      "stateMutability": "nonpayable",
      "type": "function"
    },
    {
      "inputs": [
        {
          "internalType": "bytes32",
          "name": "_messageHash",
          "type": "bytes32"
        }
      ],
      "name": "getEthSignedMessageHash",
      "outputs": [
        {
          "internalType": "bytes32",
          "name": "",
          "type": "bytes32"
        }
      ],
      "stateMutability": "pure",
      "type": "function"
    },
    {
      "inputs": [
        {
          "internalType": "address",
          "name": "account",
          "type": "address"
        },
        {
          "internalType": "uint256",
          "name": "nonce",
          "type": "uint256"
        },
        {
          "internalType": "enum Bridge.TransactionType",
          "name": "txnType",
          "type": "uint8"
        },
        {
          "internalType": "uint256",
          "name": "amount",
          "type": "uint256"
        },
        {
          "internalType": "contract IERC20",
          "name": "token",
          "type": "address"
        }
      ],
      "name": "getMessageHash",
      "outputs": [
        {
          "internalType": "bytes32",
          "name": "",
          "type": "bytes32"
        }
      ],
      "stateMutability": "view",
      "type": "function"
    },
    {
      "inputs": [
        {
          "internalType": "contract IERC20",
          "name": "_EPIC",
          "type": "address"
        },
        {
          "internalType": "contract IERC20",
          "name": "_USDC",
          "type": "address"
        },
        {
          "internalType": "address",
          "name": "validator",
          "type": "address"
        }
      ],
      "name": "initialize",
      "outputs": [],
      "stateMutability": "nonpayable",
      "type": "function"
    },
    {
      "inputs": [],
      "name": "owner",
      "outputs": [
        {
          "internalType": "address",
          "name": "",
          "type": "address"
        }
      ],
      "stateMutability": "view",
      "type": "function"
    },
    {
      "inputs": [
        {
          "internalType": "address",
          "name": "account",
          "type": "address"
        },
        {
          "internalType": "uint256",
          "name": "nonce",
          "type": "uint256"
        },
        {
          "internalType": "enum Bridge.TransactionType",
          "name": "txnType",
          "type": "uint8"
        },
        {
          "internalType": "uint256",
          "name": "amount",
          "type": "uint256"
        },
        {
          "internalType": "contract IERC20",
          "name": "token",
          "type": "address"
        },
        {
          "internalType": "bytes[]",
          "name": "signatures",
          "type": "bytes[]"
        }
      ],
      "name": "processTransaction",
      "outputs": [],
      "stateMutability": "nonpayable",
      "type": "function"
    },
    {
      "inputs": [
        {
          "internalType": "bytes32",
          "name": "_ethSignedMessageHash",
          "type": "bytes32"
        },
        {
          "internalType": "bytes",
          "name": "_signature",
          "type": "bytes"
        }
      ],
      "name": "recoverSigner",
      "outputs": [
        {
          "internalType": "address",
          "name": "",
          "type": "address"
        }
      ],
      "stateMutability": "pure",
      "type": "function"
    },
    {
      "inputs": [],
      "name": "renounceOwnership",
      "outputs": [],
      "stateMutability": "nonpayable",
      "type": "function"
    },
    {
      "inputs": [
        {
          "internalType": "bytes",
          "name": "sig",
          "type": "bytes"
        }
      ],
      "name": "splitSignature",
      "outputs": [
        {
          "internalType": "bytes32",
          "name": "r",
          "type": "bytes32"
        },
        {
          "internalType": "bytes32",
          "name": "s",
          "type": "bytes32"
        },
        {
          "internalType": "uint8",
          "name": "v",
          "type": "uint8"
        }
      ],
      "stateMutability": "pure",
      "type": "function"
    },
    {
      "inputs": [],
      "name": "totalValidators",
      "outputs": [
        {
          "internalType": "uint8",
          "name": "",
          "type": "uint8"
        }
      ],
      "stateMutability": "view",
      "type": "function"
    },
    {
      "inputs": [
        {
          "internalType": "address",
          "name": "newOwner",
          "type": "address"
        }
      ],
      "name": "transferOwnership",
      "outputs": [],
      "stateMutability": "nonpayable",
      "type": "function"
    },
    {
      "inputs": [
        {
          "internalType": "address",
          "name": "",
          "type": "address"
        }
      ],
      "name": "validators",
      "outputs": [
        {
          "internalType": "bool",
          "name": "",
          "type": "bool"
        }
      ],
      "stateMutability": "view",
      "type": "function"
    }
  ],
  "transactionHash": "0x9ab312edb5d565878fc77275e9e41c7e869d5cfe89f5735080b40e659a700cdf",
  "args": [],
  "numDeployments": 1,
  "solcInputHash": "3081ca3cffa4e76b48b36b41461242fe",
  "bytecode": "0x608060405234801561001057600080fd5b506124f3806100206000396000f3fe608060405234801561001057600080fd5b50600436106100ea5760003560e01c8063c0c53b8b1161008c578063f2fde38b11610066578063f2fde38b1461023b578063f45346dc14610257578063fa52c7d814610273578063fa540801146102a3576100ea565b8063c0c53b8b146101d1578063c5f6341a146101ed578063c81b356b1461021d576100ea565b80638da5cb5b116100c85780638da5cb5b1461013557806397aba7f914610153578063a7bb580314610183578063be818693146101b5576100ea565b8063715018a6146100ef5780638467db1c146100f957806389a3027114610117575b600080fd5b6100f76102d3565b005b6101016102e7565b60405161010e9190611328565b60405180910390f35b61011f61030d565b60405161012c9190611328565b60405180910390f35b61013d610333565b60405161014a9190611364565b60405180910390f35b61016d6004803603810190610168919061150f565b61035d565b60405161017a9190611364565b60405180910390f35b61019d6004803603810190610198919061156b565b6103cc565b6040516101ac939291906115df565b60405180910390f35b6101cf60048036038101906101ca91906117c1565b610434565b005b6101eb60048036038101906101e6919061186a565b610b66565b005b610207600480360381019061020291906118bd565b610d9d565b6040516102149190611938565b60405180910390f35b610225610de2565b6040516102329190611953565b60405180910390f35b6102556004803603810190610250919061196e565b610df5565b005b610271600480360381019061026c919061199b565b610e78565b005b61028d6004803603810190610288919061196e565b611023565b60405161029a9190611a09565b60405180910390f35b6102bd60048036038101906102b89190611a24565b611043565b6040516102ca9190611938565b60405180910390f35b6102db611073565b6102e560006110f1565b565b606560009054906101000a900473ffffffffffffffffffffffffffffffffffffffff1681565b606660009054906101000a900473ffffffffffffffffffffffffffffffffffffffff1681565b6000603360009054906101000a900473ffffffffffffffffffffffffffffffffffffffff16905090565b60008060008061036c856103cc565b925092509250600186828585604051600081526020016040526040516103959493929190611a51565b6020604051602081039080840390855afa1580156103b7573d6000803e3d6000fd5b50505060206040510351935050505092915050565b60008060006041845114610415576040517f08c379a000000000000000000000000000000000000000000000000000000000815260040161040c90611af3565b60405180910390fd5b6020840151925060408401519150606084015160001a90509193909250565b60016002606860009054906101000a900460ff166104529190611b71565b61045c9190611ba2565b60ff16815110156104a2576040517f08c379a000000000000000000000000000000000000000000000000000000000815260040161049990611c49565b60405180910390fd5b606760008773ffffffffffffffffffffffffffffffffffffffff1673ffffffffffffffffffffffffffffffffffffffff16815260200190815260200160002054851015610524576040517f08c379a000000000000000000000000000000000000000000000000000000000815260040161051b90611cb5565b60405180910390fd5b600080600090505b82518110156107495760006105448989898989610d9d565b9050600061055182611043565b905060006105798287868151811061056c5761056b611cd5565b5b602002602001015161035d565b905060001515606a60008d73ffffffffffffffffffffffffffffffffffffffff1673ffffffffffffffffffffffffffffffffffffffff16815260200190815260200160002060008c815260200190815260200160002060008373ffffffffffffffffffffffffffffffffffffffff1673ffffffffffffffffffffffffffffffffffffffff16815260200190815260200160002060009054906101000a900460ff161515148015610679575060011515606960008373ffffffffffffffffffffffffffffffffffffffff1673ffffffffffffffffffffffffffffffffffffffff16815260200190815260200160002060009054906101000a900460ff161515145b1561073357848061068990611d04565b9550506001606a60008d73ffffffffffffffffffffffffffffffffffffffff1673ffffffffffffffffffffffffffffffffffffffff16815260200190815260200160002060008c815260200190815260200160002060008373ffffffffffffffffffffffffffffffffffffffff1673ffffffffffffffffffffffffffffffffffffffff16815260200190815260200160002060006101000a81548160ff0219169083151502179055505b505050808061074190611d04565b91505061052c565b5060016002606860009054906101000a900460ff166107689190611b71565b6107729190611ba2565b60ff168110156107b7576040517f08c379a00000000000000000000000000000000000000000000000000000000081526004016107ae90611d98565b60405180910390fd5b6001866107c49190611db8565b606760008973ffffffffffffffffffffffffffffffffffffffff1673ffffffffffffffffffffffffffffffffffffffff168152602001908152602001600020819055506000600281111561081b5761081a611dec565b5b85600281111561082e5761082d611dec565b5b036108c8576068600081819054906101000a900460ff168092919061085290611e1b565b91906101000a81548160ff021916908360ff160217905550506001606960008973ffffffffffffffffffffffffffffffffffffffff1673ffffffffffffffffffffffffffffffffffffffff16815260200190815260200160002060006101000a81548160ff021916908315150217905550610b1e565b600160028111156108dc576108db611dec565b5b8560028111156108ef576108ee611dec565b5b03610989576068600081819054906101000a900460ff168092919061091390611e44565b91906101000a81548160ff021916908360ff160217905550506000606960008973ffffffffffffffffffffffffffffffffffffffff1673ffffffffffffffffffffffffffffffffffffffff16815260200190815260200160002060006101000a81548160ff021916908315150217905550610b1d565b60028081111561099c5761099b611dec565b5b8560028111156109af576109ae611dec565b5b03610b1c57606560009054906101000a900473ffffffffffffffffffffffffffffffffffffffff1673ffffffffffffffffffffffffffffffffffffffff168373ffffffffffffffffffffffffffffffffffffffff161480610a5d5750606660009054906101000a900473ffffffffffffffffffffffffffffffffffffffff1673ffffffffffffffffffffffffffffffffffffffff168373ffffffffffffffffffffffffffffffffffffffff16145b610a9c576040517f08c379a0000000000000000000000000000000000000000000000000000000008152600401610a9390611eb9565b60405180910390fd5b8273ffffffffffffffffffffffffffffffffffffffff1663a9059cbb88866040518363ffffffff1660e01b8152600401610ad7929190611ee8565b6020604051808303816000875af1158015610af6573d6000803e3d6000fd5b505050506040513d601f19601f82011682018060405250810190610b1a9190611f3d565b505b5b5b7fa507051db245ec8a7ad0e74e344f2dfdf01e399736a5cbbaccdddf54c680c52b8787878787604051610b55959493929190611fb2565b60405180910390a150505050505050565b60008060019054906101000a900460ff16159050808015610b975750600160008054906101000a900460ff1660ff16105b80610bc45750610ba6306111b7565b158015610bc35750600160008054906101000a900460ff1660ff16145b5b610c03576040517f08c379a0000000000000000000000000000000000000000000000000000000008152600401610bfa90612077565b60405180910390fd5b60016000806101000a81548160ff021916908360ff1602179055508015610c40576001600060016101000a81548160ff0219169083151502179055505b83606560006101000a81548173ffffffffffffffffffffffffffffffffffffffff021916908373ffffffffffffffffffffffffffffffffffffffff16021790555082606660006101000a81548173ffffffffffffffffffffffffffffffffffffffff021916908373ffffffffffffffffffffffffffffffffffffffff1602179055506001606860006101000a81548160ff021916908360ff1602179055506001606960008473ffffffffffffffffffffffffffffffffffffffff1673ffffffffffffffffffffffffffffffffffffffff16815260200190815260200160002060006101000a81548160ff021916908315150217905550610d3e6111da565b8015610d975760008060016101000a81548160ff0219169083151502179055507f7f26b83ff96e1f2b6a682f133852f6798a09c465da95921460cefb38474024986001604051610d8e91906120d2565b60405180910390a15b50505050565b60008585858585610dac611233565b604051602001610dc1969594939291906121a3565b60405160208183030381529060405280519060200120905095945050505050565b606860009054906101000a900460ff1681565b610dfd611073565b600073ffffffffffffffffffffffffffffffffffffffff168173ffffffffffffffffffffffffffffffffffffffff1603610e6c576040517f08c379a0000000000000000000000000000000000000000000000000000000008152600401610e6390612285565b60405180910390fd5b610e75816110f1565b50565b606560009054906101000a900473ffffffffffffffffffffffffffffffffffffffff1673ffffffffffffffffffffffffffffffffffffffff168373ffffffffffffffffffffffffffffffffffffffff161480610f215750606660009054906101000a900473ffffffffffffffffffffffffffffffffffffffff1673ffffffffffffffffffffffffffffffffffffffff168373ffffffffffffffffffffffffffffffffffffffff16145b610f60576040517f08c379a0000000000000000000000000000000000000000000000000000000008152600401610f5790611eb9565b60405180910390fd5b8273ffffffffffffffffffffffffffffffffffffffff166323b872dd3330856040518463ffffffff1660e01b8152600401610f9d939291906122a5565b6020604051808303816000875af1158015610fbc573d6000803e3d6000fd5b505050506040513d601f19601f82011682018060405250810190610fe09190611f3d565b507f4a82d3f4fd2c64329f08a8da5d7b66f87ecfb87e7045120c538eb1f51eb1a1d38333848460405161101694939291906122dc565b60405180910390a1505050565b60696020528060005260406000206000915054906101000a900460ff1681565b6000816040516020016110569190612399565b604051602081830303815290604052805190602001209050919050565b61107b611240565b73ffffffffffffffffffffffffffffffffffffffff16611099610333565b73ffffffffffffffffffffffffffffffffffffffff16146110ef576040517f08c379a00000000000000000000000000000000000000000000000000000000081526004016110e69061240b565b60405180910390fd5b565b6000603360009054906101000a900473ffffffffffffffffffffffffffffffffffffffff16905081603360006101000a81548173ffffffffffffffffffffffffffffffffffffffff021916908373ffffffffffffffffffffffffffffffffffffffff1602179055508173ffffffffffffffffffffffffffffffffffffffff168173ffffffffffffffffffffffffffffffffffffffff167f8be0079c531659141344cd1fd0a4f28419497f9722a3daafe3b4186f6b6457e060405160405180910390a35050565b6000808273ffffffffffffffffffffffffffffffffffffffff163b119050919050565b600060019054906101000a900460ff16611229576040517f08c379a00000000000000000000000000000000000000000000000000000000081526004016112209061249d565b60405180910390fd5b611231611248565b565b6000804690508091505090565b600033905090565b600060019054906101000a900460ff16611297576040517f08c379a000000000000000000000000000000000000000000000000000000000815260040161128e9061249d565b60405180910390fd5b6112a76112a2611240565b6110f1565b565b600073ffffffffffffffffffffffffffffffffffffffff82169050919050565b6000819050919050565b60006112ee6112e96112e4846112a9565b6112c9565b6112a9565b9050919050565b6000611300826112d3565b9050919050565b6000611312826112f5565b9050919050565b61132281611307565b82525050565b600060208201905061133d6000830184611319565b92915050565b600061134e826112a9565b9050919050565b61135e81611343565b82525050565b60006020820190506113796000830184611355565b92915050565b6000604051905090565b600080fd5b600080fd5b6000819050919050565b6113a681611393565b81146113b157600080fd5b50565b6000813590506113c38161139d565b92915050565b600080fd5b600080fd5b6000601f19601f8301169050919050565b7f4e487b7100000000000000000000000000000000000000000000000000000000600052604160045260246000fd5b61141c826113d3565b810181811067ffffffffffffffff8211171561143b5761143a6113e4565b5b80604052505050565b600061144e61137f565b905061145a8282611413565b919050565b600067ffffffffffffffff82111561147a576114796113e4565b5b611483826113d3565b9050602081019050919050565b82818337600083830152505050565b60006114b26114ad8461145f565b611444565b9050828152602081018484840111156114ce576114cd6113ce565b5b6114d9848285611490565b509392505050565b600082601f8301126114f6576114f56113c9565b5b813561150684826020860161149f565b91505092915050565b6000806040838503121561152657611525611389565b5b6000611534858286016113b4565b925050602083013567ffffffffffffffff8111156115555761155461138e565b5b611561858286016114e1565b9150509250929050565b60006020828403121561158157611580611389565b5b600082013567ffffffffffffffff81111561159f5761159e61138e565b5b6115ab848285016114e1565b91505092915050565b6115bd81611393565b82525050565b600060ff82169050919050565b6115d9816115c3565b82525050565b60006060820190506115f460008301866115b4565b61160160208301856115b4565b61160e60408301846115d0565b949350505050565b61161f81611343565b811461162a57600080fd5b50565b60008135905061163c81611616565b92915050565b6000819050919050565b61165581611642565b811461166057600080fd5b50565b6000813590506116728161164c565b92915050565b6003811061168557600080fd5b50565b60008135905061169781611678565b92915050565b60006116a882611343565b9050919050565b6116b88161169d565b81146116c357600080fd5b50565b6000813590506116d5816116af565b92915050565b600067ffffffffffffffff8211156116f6576116f56113e4565b5b602082029050602081019050919050565b600080fd5b600061171f61171a846116db565b611444565b9050808382526020820190506020840283018581111561174257611741611707565b5b835b8181101561178957803567ffffffffffffffff811115611767576117666113c9565b5b80860161177489826114e1565b85526020850194505050602081019050611744565b5050509392505050565b600082601f8301126117a8576117a76113c9565b5b81356117b884826020860161170c565b91505092915050565b60008060008060008060c087890312156117de576117dd611389565b5b60006117ec89828a0161162d565b96505060206117fd89828a01611663565b955050604061180e89828a01611688565b945050606061181f89828a01611663565b935050608061183089828a016116c6565b92505060a087013567ffffffffffffffff8111156118515761185061138e565b5b61185d89828a01611793565b9150509295509295509295565b60008060006060848603121561188357611882611389565b5b6000611891868287016116c6565b93505060206118a2868287016116c6565b92505060406118b38682870161162d565b9150509250925092565b600080600080600060a086880312156118d9576118d8611389565b5b60006118e78882890161162d565b95505060206118f888828901611663565b945050604061190988828901611688565b935050606061191a88828901611663565b925050608061192b888289016116c6565b9150509295509295909350565b600060208201905061194d60008301846115b4565b92915050565b600060208201905061196860008301846115d0565b92915050565b60006020828403121561198457611983611389565b5b60006119928482850161162d565b91505092915050565b6000806000606084860312156119b4576119b3611389565b5b60006119c2868287016116c6565b93505060206119d386828701611663565b92505060406119e48682870161162d565b9150509250925092565b60008115159050919050565b611a03816119ee565b82525050565b6000602082019050611a1e60008301846119fa565b92915050565b600060208284031215611a3a57611a39611389565b5b6000611a48848285016113b4565b91505092915050565b6000608082019050611a6660008301876115b4565b611a7360208301866115d0565b611a8060408301856115b4565b611a8d60608301846115b4565b95945050505050565b600082825260208201905092915050565b7f696e76616c6964207369676e6174757265206c656e6774680000000000000000600082015250565b6000611add601883611a96565b9150611ae882611aa7565b602082019050919050565b60006020820190508181036000830152611b0c81611ad0565b9050919050565b7f4e487b7100000000000000000000000000000000000000000000000000000000600052601260045260246000fd5b7f4e487b7100000000000000000000000000000000000000000000000000000000600052601160045260246000fd5b6000611b7c826115c3565b9150611b87836115c3565b925082611b9757611b96611b13565b5b828204905092915050565b6000611bad826115c3565b9150611bb8836115c3565b9250828201905060ff811115611bd157611bd0611b42565b5b92915050565b7f6d6f7265207468616e2068616c66206f662076616c696461746f7273206e656560008201527f6420746f207369676e0000000000000000000000000000000000000000000000602082015250565b6000611c33602983611a96565b9150611c3e82611bd7565b604082019050919050565b60006020820190508181036000830152611c6281611c26565b9050919050565b7f696e76616c6964206e6f6e636500000000000000000000000000000000000000600082015250565b6000611c9f600d83611a96565b9150611caa82611c69565b602082019050919050565b60006020820190508181036000830152611cce81611c92565b9050919050565b7f4e487b7100000000000000000000000000000000000000000000000000000000600052603260045260246000fd5b6000611d0f82611642565b91507fffffffffffffffffffffffffffffffffffffffffffffffffffffffffffffffff8203611d4157611d40611b42565b5b600182019050919050565b7f696e73756666696369656e742076616c696461746f7273207369676e65640000600082015250565b6000611d82601e83611a96565b9150611d8d82611d4c565b602082019050919050565b60006020820190508181036000830152611db181611d75565b9050919050565b6000611dc382611642565b9150611dce83611642565b9250828201905080821115611de657611de5611b42565b5b92915050565b7f4e487b7100000000000000000000000000000000000000000000000000000000600052602160045260246000fd5b6000611e26826115c3565b915060ff8203611e3957611e38611b42565b5b600182019050919050565b6000611e4f826115c3565b915060008203611e6257611e61611b42565b5b600182039050919050565b7f746f6b656e206e6f7420737570706f7274656400000000000000000000000000600082015250565b6000611ea3601383611a96565b9150611eae82611e6d565b602082019050919050565b60006020820190508181036000830152611ed281611e96565b9050919050565b611ee281611642565b82525050565b6000604082019050611efd6000830185611355565b611f0a6020830184611ed9565b9392505050565b611f1a816119ee565b8114611f2557600080fd5b50565b600081519050611f3781611f11565b92915050565b600060208284031215611f5357611f52611389565b5b6000611f6184828501611f28565b91505092915050565b60038110611f7b57611f7a611dec565b5b50565b6000819050611f8c82611f6a565b919050565b6000611f9c82611f7e565b9050919050565b611fac81611f91565b82525050565b600060a082019050611fc76000830188611355565b611fd46020830187611ed9565b611fe16040830186611fa3565b611fee6060830185611ed9565b611ffb6080830184611319565b9695505050505050565b7f496e697469616c697a61626c653a20636f6e747261637420697320616c72656160008201527f647920696e697469616c697a6564000000000000000000000000000000000000602082015250565b6000612061602e83611a96565b915061206c82612005565b604082019050919050565b6000602082019050818103600083015261209081612054565b9050919050565b6000819050919050565b60006120bc6120b76120b284612097565b6112c9565b6115c3565b9050919050565b6120cc816120a1565b82525050565b60006020820190506120e760008301846120c3565b92915050565b60008160601b9050919050565b6000612105826120ed565b9050919050565b6000612117826120fa565b9050919050565b61212f61212a82611343565b61210c565b82525050565b6000819050919050565b61215061214b82611642565b612135565b82525050565b60008160f81b9050919050565b600061216e82612156565b9050919050565b61218661218182611f91565b612163565b82525050565b61219d61219882611307565b61210c565b82525050565b60006121af828961211e565b6014820191506121bf828861213f565b6020820191506121cf8287612175565b6001820191506121df828661213f565b6020820191506121ef828561218c565b6014820191506121ff828461213f565b602082019150819050979650505050505050565b7f4f776e61626c653a206e6577206f776e657220697320746865207a65726f206160008201527f6464726573730000000000000000000000000000000000000000000000000000602082015250565b600061226f602683611a96565b915061227a82612213565b604082019050919050565b6000602082019050818103600083015261229e81612262565b9050919050565b60006060820190506122ba6000830186611355565b6122c76020830185611355565b6122d46040830184611ed9565b949350505050565b60006080820190506122f16000830187611319565b6122fe6020830186611355565b61230b6040830185611ed9565b6123186060830184611355565b95945050505050565b600081905092915050565b7f19457468657265756d205369676e6564204d6573736167653a0a333200000000600082015250565b6000612362601c83612321565b915061236d8261232c565b601c82019050919050565b6000819050919050565b61239361238e82611393565b612378565b82525050565b60006123a482612355565b91506123b08284612382565b60208201915081905092915050565b7f4f776e61626c653a2063616c6c6572206973206e6f7420746865206f776e6572600082015250565b60006123f5602083611a96565b9150612400826123bf565b602082019050919050565b60006020820190508181036000830152612424816123e8565b9050919050565b7f496e697469616c697a61626c653a20636f6e7472616374206973206e6f74206960008201527f6e697469616c697a696e67000000000000000000000000000000000000000000602082015250565b6000612487602b83611a96565b91506124928261242b565b604082019050919050565b600060208201905081810360008301526124b68161247a565b905091905056fea2646970667358221220f4cec4585bae38692455bacc0514137752925134141047a8cc0be8a28d36f57d64736f6c63430008110033",
  "devdoc": {
    "kind": "dev",
    "methods": {
      "owner()": {
        "details": "Returns the address of the current owner."
      },
      "renounceOwnership()": {
        "details": "Leaves the contract without owner. It will not be possible to call `onlyOwner` functions anymore. Can only be called by the current owner. NOTE: Renouncing ownership will leave the contract without an owner, thereby removing any functionality that is only available to the owner."
      },
      "transferOwnership(address)": {
        "details": "Transfers ownership of the contract to a new account (`newOwner`). Can only be called by the current owner."
      }
    },
    "version": 1
  },
  "userdoc": {
    "kind": "user",
    "methods": {
      "totalValidators()": {
        "notice": "This variable store the total validators in the sidechain"
      },
      "validators(address)": {
        "notice": "This mapping tells us if an sidechain account is a validator or not"
      }
    },
    "version": 1
  },
  "storageLayout": {
    "storage": [
      {
        "astId": 138,
        "contract": "contracts/Bridge.sol:Bridge",
        "label": "_initialized",
        "offset": 0,
        "slot": "0",
        "type": "t_uint8"
      },
      {
        "astId": 141,
        "contract": "contracts/Bridge.sol:Bridge",
        "label": "_initializing",
        "offset": 1,
        "slot": "0",
        "type": "t_bool"
      },
      {
        "astId": 625,
        "contract": "contracts/Bridge.sol:Bridge",
        "label": "__gap",
        "offset": 0,
        "slot": "1",
        "type": "t_array(t_uint256)50_storage"
      },
      {
        "astId": 10,
        "contract": "contracts/Bridge.sol:Bridge",
        "label": "_owner",
        "offset": 0,
        "slot": "51",
        "type": "t_address"
      },
      {
        "astId": 130,
        "contract": "contracts/Bridge.sol:Bridge",
        "label": "__gap",
        "offset": 0,
        "slot": "52",
        "type": "t_array(t_uint256)49_storage"
      },
      {
        "astId": 1347,
        "contract": "contracts/Bridge.sol:Bridge",
        "label": "EPIC",
        "offset": 0,
        "slot": "101",
        "type": "t_contract(IERC20)1291"
      },
      {
        "astId": 1350,
        "contract": "contracts/Bridge.sol:Bridge",
        "label": "USDC",
        "offset": 0,
        "slot": "102",
        "type": "t_contract(IERC20)1291"
      },
      {
        "astId": 1355,
        "contract": "contracts/Bridge.sol:Bridge",
        "label": "nextNonce",
        "offset": 0,
        "slot": "103",
        "type": "t_mapping(t_address,t_uint256)"
      },
      {
        "astId": 1358,
        "contract": "contracts/Bridge.sol:Bridge",
        "label": "totalValidators",
        "offset": 0,
        "slot": "104",
        "type": "t_uint8"
      },
      {
        "astId": 1363,
        "contract": "contracts/Bridge.sol:Bridge",
        "label": "validators",
        "offset": 0,
        "slot": "105",
        "type": "t_mapping(t_address,t_bool)"
      },
      {
        "astId": 1372,
        "contract": "contracts/Bridge.sol:Bridge",
        "label": "validatorSigned",
        "offset": 0,
        "slot": "106",
        "type": "t_mapping(t_address,t_mapping(t_uint256,t_mapping(t_address,t_bool)))"
      }
    ],
    "types": {
      "t_address": {
        "encoding": "inplace",
        "label": "address",
        "numberOfBytes": "20"
      },
      "t_array(t_uint256)49_storage": {
        "base": "t_uint256",
        "encoding": "inplace",
        "label": "uint256[49]",
        "numberOfBytes": "1568"
      },
      "t_array(t_uint256)50_storage": {
        "base": "t_uint256",
        "encoding": "inplace",
        "label": "uint256[50]",
        "numberOfBytes": "1600"
      },
      "t_bool": {
        "encoding": "inplace",
        "label": "bool",
        "numberOfBytes": "1"
      },
      "t_contract(IERC20)1291": {
        "encoding": "inplace",
        "label": "contract IERC20",
        "numberOfBytes": "20"
      },
      "t_mapping(t_address,t_bool)": {
        "encoding": "mapping",
        "key": "t_address",
        "label": "mapping(address => bool)",
        "numberOfBytes": "32",
        "value": "t_bool"
      },
      "t_mapping(t_address,t_mapping(t_uint256,t_mapping(t_address,t_bool)))": {
        "encoding": "mapping",
        "key": "t_address",
        "label": "mapping(address => mapping(uint256 => mapping(address => bool)))",
        "numberOfBytes": "32",
        "value": "t_mapping(t_uint256,t_mapping(t_address,t_bool))"
      },
      "t_mapping(t_address,t_uint256)": {
        "encoding": "mapping",
        "key": "t_address",
        "label": "mapping(address => uint256)",
        "numberOfBytes": "32",
        "value": "t_uint256"
      },
      "t_mapping(t_uint256,t_mapping(t_address,t_bool))": {
        "encoding": "mapping",
        "key": "t_uint256",
        "label": "mapping(uint256 => mapping(address => bool))",
        "numberOfBytes": "32",
        "value": "t_mapping(t_address,t_bool)"
      },
      "t_uint256": {
        "encoding": "inplace",
        "label": "uint256",
        "numberOfBytes": "32"
      },
      "t_uint8": {
        "encoding": "inplace",
        "label": "uint8",
        "numberOfBytes": "1"
      }
    }
  }
}