{
  "address": "0x479a27564332a46C2725E7bb45e82FA5bE332e1C",
  "abi": [
    {
      "anonymous": false,
      "inputs": [
        {
          "indexed": false,
          "internalType": "contract IERC20",
          "name": "token",
          "type": "address"
        },
        {
          "indexed": false,
          "internalType": "address",
          "name": "user",
          "type": "address"
        },
        {
          "indexed": false,
          "internalType": "uint256",
          "name": "amount",
          "type": "uint256"
        },
        {
          "indexed": false,
          "internalType": "address",
          "name": "account",
          "type": "address"
        },
        {
          "indexed": false,
          "internalType": "uint256",
          "name": "depositId",
          "type": "uint256"
        }
      ],
      "name": "Deposited",
      "type": "event"
    },
    {
      "anonymous": false,
      "inputs": [
        {
          "indexed": false,
          "internalType": "uint8",
          "name": "version",
          "type": "uint8"
        }
      ],
      "name": "Initialized",
      "type": "event"
    },
    {
      "anonymous": false,
      "inputs": [
        {
          "indexed": true,
          "internalType": "address",
          "name": "previousOwner",
          "type": "address"
        },
        {
          "indexed": true,
          "internalType": "address",
          "name": "newOwner",
          "type": "address"
        }
      ],
      "name": "OwnershipTransferred",
      "type": "event"
    },
    {
      "anonymous": false,
      "inputs": [
        {
          "indexed": false,
          "internalType": "address",
          "name": "account",
          "type": "address"
        },
        {
          "indexed": false,
          "internalType": "uint256",
          "name": "nonce",
          "type": "uint256"
        },
        {
          "indexed": false,
          "internalType": "enum Bridge.TransactionType",
          "name": "txnType",
          "type": "uint8"
        },
        {
          "indexed": false,
          "internalType": "uint256",
          "name": "amount",
          "type": "uint256"
        },
        {
          "indexed": false,
          "internalType": "contract IERC20",
          "name": "token",
          "type": "address"
        }
      ],
      "name": "TransactionProcessed",
      "type": "event"
    },
    {
      "inputs": [],
      "name": "EPIC",
      "outputs": [
        {
          "internalType": "contract IERC20",
          "name": "",
          "type": "address"
        }
      ],
      "stateMutability": "view",
      "type": "function"
    },
    {
      "inputs": [],
      "name": "USDC",
      "outputs": [
        {
          "internalType": "contract IERC20",
          "name": "",
          "type": "address"
        }
      ],
      "stateMutability": "view",
      "type": "function"
    },
    {
      "inputs": [
        {
          "internalType": "contract IERC20",
          "name": "token",
          "type": "address"
        },
        {
          "internalType": "uint256",
          "name": "amount",
          "type": "uint256"
        },
        {
          "internalType": "address",
          "name": "account",
          "type": "address"
        }
      ],
      "name": "deposit",
      "outputs": [],
      "stateMutability": "nonpayable",
      "type": "function"
    },
    {
      "inputs": [],
      "name": "depositId",
      "outputs": [
        {
          "internalType": "uint256",
          "name": "",
          "type": "uint256"
        }
      ],
      "stateMutability": "view",
      "type": "function"
    },
    {
      "inputs": [
        {
          "internalType": "bytes32",
          "name": "_messageHash",
          "type": "bytes32"
        }
      ],
      "name": "getEthSignedMessageHash",
      "outputs": [
        {
          "internalType": "bytes32",
          "name": "",
          "type": "bytes32"
        }
      ],
      "stateMutability": "pure",
      "type": "function"
    },
    {
      "inputs": [
        {
          "internalType": "address",
          "name": "account",
          "type": "address"
        },
        {
          "internalType": "uint256",
          "name": "nonce",
          "type": "uint256"
        },
        {
          "internalType": "enum Bridge.TransactionType",
          "name": "txnType",
          "type": "uint8"
        },
        {
          "internalType": "uint256",
          "name": "amount",
          "type": "uint256"
        },
        {
          "internalType": "contract IERC20",
          "name": "token",
          "type": "address"
        }
      ],
      "name": "getMessageHash",
      "outputs": [
        {
          "internalType": "bytes32",
          "name": "",
          "type": "bytes32"
        }
      ],
      "stateMutability": "view",
      "type": "function"
    },
    {
      "inputs": [
        {
          "internalType": "contract IERC20",
          "name": "_EPIC",
          "type": "address"
        },
        {
          "internalType": "contract IERC20",
          "name": "_USDC",
          "type": "address"
        },
        {
          "internalType": "address",
          "name": "validator",
          "type": "address"
        }
      ],
      "name": "initialize",
      "outputs": [],
      "stateMutability": "nonpayable",
      "type": "function"
    },
    {
      "inputs": [],
      "name": "owner",
      "outputs": [
        {
          "internalType": "address",
          "name": "",
          "type": "address"
        }
      ],
      "stateMutability": "view",
      "type": "function"
    },
    {
      "inputs": [
        {
          "internalType": "address",
          "name": "account",
          "type": "address"
        },
        {
          "internalType": "uint256",
          "name": "nonce",
          "type": "uint256"
        },
        {
          "internalType": "enum Bridge.TransactionType",
          "name": "txnType",
          "type": "uint8"
        },
        {
          "internalType": "uint256",
          "name": "amount",
          "type": "uint256"
        },
        {
          "internalType": "contract IERC20",
          "name": "token",
          "type": "address"
        },
        {
          "internalType": "bytes[]",
          "name": "signatures",
          "type": "bytes[]"
        }
      ],
      "name": "processTransaction",
      "outputs": [],
      "stateMutability": "nonpayable",
      "type": "function"
    },
    {
      "inputs": [
        {
          "internalType": "bytes32",
          "name": "_ethSignedMessageHash",
          "type": "bytes32"
        },
        {
          "internalType": "bytes",
          "name": "_signature",
          "type": "bytes"
        }
      ],
      "name": "recoverSigner",
      "outputs": [
        {
          "internalType": "address",
          "name": "",
          "type": "address"
        }
      ],
      "stateMutability": "pure",
      "type": "function"
    },
    {
      "inputs": [],
      "name": "renounceOwnership",
      "outputs": [],
      "stateMutability": "nonpayable",
      "type": "function"
    },
    {
      "inputs": [
        {
          "internalType": "bytes",
          "name": "sig",
          "type": "bytes"
        }
      ],
      "name": "splitSignature",
      "outputs": [
        {
          "internalType": "bytes32",
          "name": "r",
          "type": "bytes32"
        },
        {
          "internalType": "bytes32",
          "name": "s",
          "type": "bytes32"
        },
        {
          "internalType": "uint8",
          "name": "v",
          "type": "uint8"
        }
      ],
      "stateMutability": "pure",
      "type": "function"
    },
    {
      "inputs": [],
      "name": "totalValidators",
      "outputs": [
        {
          "internalType": "uint8",
          "name": "",
          "type": "uint8"
        }
      ],
      "stateMutability": "view",
      "type": "function"
    },
    {
      "inputs": [
        {
          "internalType": "address",
          "name": "newOwner",
          "type": "address"
        }
      ],
      "name": "transferOwnership",
      "outputs": [],
      "stateMutability": "nonpayable",
      "type": "function"
    },
    {
      "inputs": [
        {
          "internalType": "address",
          "name": "",
          "type": "address"
        }
      ],
      "name": "validators",
      "outputs": [
        {
          "internalType": "bool",
          "name": "",
          "type": "bool"
        }
      ],
      "stateMutability": "view",
      "type": "function"
    }
  ],
  "transactionHash": "0x2bfdb5bed6d96590959ad9e70f4ee29f918f06043ea0d95941c62418f04601eb",
  "args": [],
  "numDeployments": 1,
  "solcInputHash": "5dc4c12124ee610cf42d99a09128e3c0",
  "bytecode": "0x608060405234801561001057600080fd5b5061256e806100206000396000f3fe608060405234801561001057600080fd5b50600436106100f55760003560e01c8063be81869311610097578063f2fde38b11610066578063f2fde38b14610264578063f45346dc14610280578063fa52c7d81461029c578063fa540801146102cc576100f5565b8063be818693146101de578063c0c53b8b146101fa578063c5f6341a14610216578063c81b356b14610246576100f5565b80638da5cb5b116100d35780638da5cb5b1461014057806397aba7f91461015e5780639852099c1461018e578063a7bb5803146101ac576100f5565b8063715018a6146100fa5780638467db1c1461010457806389a3027114610122575b600080fd5b6101026102fc565b005b61010c610310565b60405161011991906113ae565b60405180910390f35b61012a610336565b60405161013791906113ae565b60405180910390f35b61014861035c565b60405161015591906113ea565b60405180910390f35b61017860048036038101906101739190611595565b610386565b60405161018591906113ea565b60405180910390f35b6101966103f5565b6040516101a3919061160a565b60405180910390f35b6101c660048036038101906101c19190611625565b6103fb565b6040516101d593929190611699565b60405180910390f35b6101f860048036038101906101f39190611871565b610463565b005b610214600480360381019061020f919061191a565b610bd0565b005b610230600480360381019061022b919061196d565b610e07565b60405161023d91906119e8565b60405180910390f35b61024e610e4c565b60405161025b9190611a03565b60405180910390f35b61027e60048036038101906102799190611a1e565b610e5f565b005b61029a60048036038101906102959190611a4b565b610ee2565b005b6102b660048036038101906102b19190611a1e565b6110a9565b6040516102c39190611ab9565b60405180910390f35b6102e660048036038101906102e19190611ad4565b6110c9565b6040516102f391906119e8565b60405180910390f35b6103046110f9565b61030e6000611177565b565b606560009054906101000a900473ffffffffffffffffffffffffffffffffffffffff1681565b606660009054906101000a900473ffffffffffffffffffffffffffffffffffffffff1681565b6000603360009054906101000a900473ffffffffffffffffffffffffffffffffffffffff16905090565b600080600080610395856103fb565b925092509250600186828585604051600081526020016040526040516103be9493929190611b01565b6020604051602081039080840390855afa1580156103e0573d6000803e3d6000fd5b50505060206040510351935050505092915050565b606b5481565b60008060006041845114610444576040517f08c379a000000000000000000000000000000000000000000000000000000000815260040161043b90611ba3565b60405180910390fd5b6020840151925060408401519150606084015160001a90509193909250565b60016002606860009054906101000a900460ff166104819190611c21565b61048b9190611c52565b60ff16815110156104d1576040517f08c379a00000000000000000000000000000000000000000000000000000000081526004016104c890611cf9565b60405180910390fd5b60001515606760008873ffffffffffffffffffffffffffffffffffffffff1673ffffffffffffffffffffffffffffffffffffffff168152602001908152602001600020600087815260200190815260200160002060009054906101000a900460ff16151514610575576040517f08c379a000000000000000000000000000000000000000000000000000000000815260040161056c90611d65565b60405180910390fd5b600080600090505b825181101561079a5760006105958989898989610e07565b905060006105a2826110c9565b905060006105ca828786815181106105bd576105bc611d85565b5b6020026020010151610386565b905060001515606a60008d73ffffffffffffffffffffffffffffffffffffffff1673ffffffffffffffffffffffffffffffffffffffff16815260200190815260200160002060008c815260200190815260200160002060008373ffffffffffffffffffffffffffffffffffffffff1673ffffffffffffffffffffffffffffffffffffffff16815260200190815260200160002060009054906101000a900460ff1615151480156106ca575060011515606960008373ffffffffffffffffffffffffffffffffffffffff1673ffffffffffffffffffffffffffffffffffffffff16815260200190815260200160002060009054906101000a900460ff161515145b156107845784806106da90611db4565b9550506001606a60008d73ffffffffffffffffffffffffffffffffffffffff1673ffffffffffffffffffffffffffffffffffffffff16815260200190815260200160002060008c815260200190815260200160002060008373ffffffffffffffffffffffffffffffffffffffff1673ffffffffffffffffffffffffffffffffffffffff16815260200190815260200160002060006101000a81548160ff0219169083151502179055505b505050808061079290611db4565b91505061057d565b5060016002606860009054906101000a900460ff166107b99190611c21565b6107c39190611c52565b60ff16811015610808576040517f08c379a00000000000000000000000000000000000000000000000000000000081526004016107ff90611e48565b60405180910390fd5b6001606760008973ffffffffffffffffffffffffffffffffffffffff1673ffffffffffffffffffffffffffffffffffffffff168152602001908152602001600020600088815260200190815260200160002060006101000a81548160ff0219169083151502179055506000600281111561088557610884611e68565b5b85600281111561089857610897611e68565b5b03610932576068600081819054906101000a900460ff16809291906108bc90611e97565b91906101000a81548160ff021916908360ff160217905550506001606960008973ffffffffffffffffffffffffffffffffffffffff1673ffffffffffffffffffffffffffffffffffffffff16815260200190815260200160002060006101000a81548160ff021916908315150217905550610b88565b6001600281111561094657610945611e68565b5b85600281111561095957610958611e68565b5b036109f3576068600081819054906101000a900460ff168092919061097d90611ec0565b91906101000a81548160ff021916908360ff160217905550506000606960008973ffffffffffffffffffffffffffffffffffffffff1673ffffffffffffffffffffffffffffffffffffffff16815260200190815260200160002060006101000a81548160ff021916908315150217905550610b87565b600280811115610a0657610a05611e68565b5b856002811115610a1957610a18611e68565b5b03610b8657606560009054906101000a900473ffffffffffffffffffffffffffffffffffffffff1673ffffffffffffffffffffffffffffffffffffffff168373ffffffffffffffffffffffffffffffffffffffff161480610ac75750606660009054906101000a900473ffffffffffffffffffffffffffffffffffffffff1673ffffffffffffffffffffffffffffffffffffffff168373ffffffffffffffffffffffffffffffffffffffff16145b610b06576040517f08c379a0000000000000000000000000000000000000000000000000000000008152600401610afd90611f35565b60405180910390fd5b8273ffffffffffffffffffffffffffffffffffffffff1663a9059cbb88866040518363ffffffff1660e01b8152600401610b41929190611f55565b6020604051808303816000875af1158015610b60573d6000803e3d6000fd5b505050506040513d601f19601f82011682018060405250810190610b849190611faa565b505b5b5b7fa507051db245ec8a7ad0e74e344f2dfdf01e399736a5cbbaccdddf54c680c52b8787878787604051610bbf95949392919061201f565b60405180910390a150505050505050565b60008060019054906101000a900460ff16159050808015610c015750600160008054906101000a900460ff1660ff16105b80610c2e5750610c103061123d565b158015610c2d5750600160008054906101000a900460ff1660ff16145b5b610c6d576040517f08c379a0000000000000000000000000000000000000000000000000000000008152600401610c64906120e4565b60405180910390fd5b60016000806101000a81548160ff021916908360ff1602179055508015610caa576001600060016101000a81548160ff0219169083151502179055505b83606560006101000a81548173ffffffffffffffffffffffffffffffffffffffff021916908373ffffffffffffffffffffffffffffffffffffffff16021790555082606660006101000a81548173ffffffffffffffffffffffffffffffffffffffff021916908373ffffffffffffffffffffffffffffffffffffffff1602179055506001606860006101000a81548160ff021916908360ff1602179055506001606960008473ffffffffffffffffffffffffffffffffffffffff1673ffffffffffffffffffffffffffffffffffffffff16815260200190815260200160002060006101000a81548160ff021916908315150217905550610da8611260565b8015610e015760008060016101000a81548160ff0219169083151502179055507f7f26b83ff96e1f2b6a682f133852f6798a09c465da95921460cefb38474024986001604051610df8919061213f565b60405180910390a15b50505050565b60008585858585610e166112b9565b604051602001610e2b96959493929190612210565b60405160208183030381529060405280519060200120905095945050505050565b606860009054906101000a900460ff1681565b610e676110f9565b600073ffffffffffffffffffffffffffffffffffffffff168173ffffffffffffffffffffffffffffffffffffffff1603610ed6576040517f08c379a0000000000000000000000000000000000000000000000000000000008152600401610ecd906122f2565b60405180910390fd5b610edf81611177565b50565b606560009054906101000a900473ffffffffffffffffffffffffffffffffffffffff1673ffffffffffffffffffffffffffffffffffffffff168373ffffffffffffffffffffffffffffffffffffffff161480610f8b5750606660009054906101000a900473ffffffffffffffffffffffffffffffffffffffff1673ffffffffffffffffffffffffffffffffffffffff168373ffffffffffffffffffffffffffffffffffffffff16145b610fca576040517f08c379a0000000000000000000000000000000000000000000000000000000008152600401610fc190611f35565b60405180910390fd5b8273ffffffffffffffffffffffffffffffffffffffff166323b872dd3330856040518463ffffffff1660e01b815260040161100793929190612312565b6020604051808303816000875af1158015611026573d6000803e3d6000fd5b505050506040513d601f19601f8201168201806040525081019061104a9190611faa565b507fbff4812e409bb3904216e9fa161d3a7760e4baeac7c1f7d0aff44114fc1e1bbd83338484606b54604051611084959493929190612349565b60405180910390a1606b600081548092919061109f90611db4565b9190505550505050565b60696020528060005260406000206000915054906101000a900460ff1681565b6000816040516020016110dc9190612414565b604051602081830303815290604052805190602001209050919050565b6111016112c6565b73ffffffffffffffffffffffffffffffffffffffff1661111f61035c565b73ffffffffffffffffffffffffffffffffffffffff1614611175576040517f08c379a000000000000000000000000000000000000000000000000000000000815260040161116c90612486565b60405180910390fd5b565b6000603360009054906101000a900473ffffffffffffffffffffffffffffffffffffffff16905081603360006101000a81548173ffffffffffffffffffffffffffffffffffffffff021916908373ffffffffffffffffffffffffffffffffffffffff1602179055508173ffffffffffffffffffffffffffffffffffffffff168173ffffffffffffffffffffffffffffffffffffffff167f8be0079c531659141344cd1fd0a4f28419497f9722a3daafe3b4186f6b6457e060405160405180910390a35050565b6000808273ffffffffffffffffffffffffffffffffffffffff163b119050919050565b600060019054906101000a900460ff166112af576040517f08c379a00000000000000000000000000000000000000000000000000000000081526004016112a690612518565b60405180910390fd5b6112b76112ce565b565b6000804690508091505090565b600033905090565b600060019054906101000a900460ff1661131d576040517f08c379a000000000000000000000000000000000000000000000000000000000815260040161131490612518565b60405180910390fd5b61132d6113286112c6565b611177565b565b600073ffffffffffffffffffffffffffffffffffffffff82169050919050565b6000819050919050565b600061137461136f61136a8461132f565b61134f565b61132f565b9050919050565b600061138682611359565b9050919050565b60006113988261137b565b9050919050565b6113a88161138d565b82525050565b60006020820190506113c3600083018461139f565b92915050565b60006113d48261132f565b9050919050565b6113e4816113c9565b82525050565b60006020820190506113ff60008301846113db565b92915050565b6000604051905090565b600080fd5b600080fd5b6000819050919050565b61142c81611419565b811461143757600080fd5b50565b60008135905061144981611423565b92915050565b600080fd5b600080fd5b6000601f19601f8301169050919050565b7f4e487b7100000000000000000000000000000000000000000000000000000000600052604160045260246000fd5b6114a282611459565b810181811067ffffffffffffffff821117156114c1576114c061146a565b5b80604052505050565b60006114d4611405565b90506114e08282611499565b919050565b600067ffffffffffffffff821115611500576114ff61146a565b5b61150982611459565b9050602081019050919050565b82818337600083830152505050565b6000611538611533846114e5565b6114ca565b90508281526020810184848401111561155457611553611454565b5b61155f848285611516565b509392505050565b600082601f83011261157c5761157b61144f565b5b813561158c848260208601611525565b91505092915050565b600080604083850312156115ac576115ab61140f565b5b60006115ba8582860161143a565b925050602083013567ffffffffffffffff8111156115db576115da611414565b5b6115e785828601611567565b9150509250929050565b6000819050919050565b611604816115f1565b82525050565b600060208201905061161f60008301846115fb565b92915050565b60006020828403121561163b5761163a61140f565b5b600082013567ffffffffffffffff81111561165957611658611414565b5b61166584828501611567565b91505092915050565b61167781611419565b82525050565b600060ff82169050919050565b6116938161167d565b82525050565b60006060820190506116ae600083018661166e565b6116bb602083018561166e565b6116c8604083018461168a565b949350505050565b6116d9816113c9565b81146116e457600080fd5b50565b6000813590506116f6816116d0565b92915050565b611705816115f1565b811461171057600080fd5b50565b600081359050611722816116fc565b92915050565b6003811061173557600080fd5b50565b60008135905061174781611728565b92915050565b6000611758826113c9565b9050919050565b6117688161174d565b811461177357600080fd5b50565b6000813590506117858161175f565b92915050565b600067ffffffffffffffff8211156117a6576117a561146a565b5b602082029050602081019050919050565b600080fd5b60006117cf6117ca8461178b565b6114ca565b905080838252602082019050602084028301858111156117f2576117f16117b7565b5b835b8181101561183957803567ffffffffffffffff8111156118175761181661144f565b5b8086016118248982611567565b855260208501945050506020810190506117f4565b5050509392505050565b600082601f8301126118585761185761144f565b5b81356118688482602086016117bc565b91505092915050565b60008060008060008060c0878903121561188e5761188d61140f565b5b600061189c89828a016116e7565b96505060206118ad89828a01611713565b95505060406118be89828a01611738565b94505060606118cf89828a01611713565b93505060806118e089828a01611776565b92505060a087013567ffffffffffffffff81111561190157611900611414565b5b61190d89828a01611843565b9150509295509295509295565b6000806000606084860312156119335761193261140f565b5b600061194186828701611776565b935050602061195286828701611776565b9250506040611963868287016116e7565b9150509250925092565b600080600080600060a086880312156119895761198861140f565b5b6000611997888289016116e7565b95505060206119a888828901611713565b94505060406119b988828901611738565b93505060606119ca88828901611713565b92505060806119db88828901611776565b9150509295509295909350565b60006020820190506119fd600083018461166e565b92915050565b6000602082019050611a18600083018461168a565b92915050565b600060208284031215611a3457611a3361140f565b5b6000611a42848285016116e7565b91505092915050565b600080600060608486031215611a6457611a6361140f565b5b6000611a7286828701611776565b9350506020611a8386828701611713565b9250506040611a94868287016116e7565b9150509250925092565b60008115159050919050565b611ab381611a9e565b82525050565b6000602082019050611ace6000830184611aaa565b92915050565b600060208284031215611aea57611ae961140f565b5b6000611af88482850161143a565b91505092915050565b6000608082019050611b16600083018761166e565b611b23602083018661168a565b611b30604083018561166e565b611b3d606083018461166e565b95945050505050565b600082825260208201905092915050565b7f696e76616c6964207369676e6174757265206c656e6774680000000000000000600082015250565b6000611b8d601883611b46565b9150611b9882611b57565b602082019050919050565b60006020820190508181036000830152611bbc81611b80565b9050919050565b7f4e487b7100000000000000000000000000000000000000000000000000000000600052601260045260246000fd5b7f4e487b7100000000000000000000000000000000000000000000000000000000600052601160045260246000fd5b6000611c2c8261167d565b9150611c378361167d565b925082611c4757611c46611bc3565b5b828204905092915050565b6000611c5d8261167d565b9150611c688361167d565b9250828201905060ff811115611c8157611c80611bf2565b5b92915050565b7f6d6f7265207468616e2068616c66206f662076616c696461746f7273206e656560008201527f6420746f207369676e0000000000000000000000000000000000000000000000602082015250565b6000611ce3602983611b46565b9150611cee82611c87565b604082019050919050565b60006020820190508181036000830152611d1281611cd6565b9050919050565b7f696e76616c6964206e6f6e636500000000000000000000000000000000000000600082015250565b6000611d4f600d83611b46565b9150611d5a82611d19565b602082019050919050565b60006020820190508181036000830152611d7e81611d42565b9050919050565b7f4e487b7100000000000000000000000000000000000000000000000000000000600052603260045260246000fd5b6000611dbf826115f1565b91507fffffffffffffffffffffffffffffffffffffffffffffffffffffffffffffffff8203611df157611df0611bf2565b5b600182019050919050565b7f696e73756666696369656e742076616c696461746f7273207369676e65640000600082015250565b6000611e32601e83611b46565b9150611e3d82611dfc565b602082019050919050565b60006020820190508181036000830152611e6181611e25565b9050919050565b7f4e487b7100000000000000000000000000000000000000000000000000000000600052602160045260246000fd5b6000611ea28261167d565b915060ff8203611eb557611eb4611bf2565b5b600182019050919050565b6000611ecb8261167d565b915060008203611ede57611edd611bf2565b5b600182039050919050565b7f746f6b656e206e6f7420737570706f7274656400000000000000000000000000600082015250565b6000611f1f601383611b46565b9150611f2a82611ee9565b602082019050919050565b60006020820190508181036000830152611f4e81611f12565b9050919050565b6000604082019050611f6a60008301856113db565b611f7760208301846115fb565b9392505050565b611f8781611a9e565b8114611f9257600080fd5b50565b600081519050611fa481611f7e565b92915050565b600060208284031215611fc057611fbf61140f565b5b6000611fce84828501611f95565b91505092915050565b60038110611fe857611fe7611e68565b5b50565b6000819050611ff982611fd7565b919050565b600061200982611feb565b9050919050565b61201981611ffe565b82525050565b600060a08201905061203460008301886113db565b61204160208301876115fb565b61204e6040830186612010565b61205b60608301856115fb565b612068608083018461139f565b9695505050505050565b7f496e697469616c697a61626c653a20636f6e747261637420697320616c72656160008201527f647920696e697469616c697a6564000000000000000000000000000000000000602082015250565b60006120ce602e83611b46565b91506120d982612072565b604082019050919050565b600060208201905081810360008301526120fd816120c1565b9050919050565b6000819050919050565b600061212961212461211f84612104565b61134f565b61167d565b9050919050565b6121398161210e565b82525050565b60006020820190506121546000830184612130565b92915050565b60008160601b9050919050565b60006121728261215a565b9050919050565b600061218482612167565b9050919050565b61219c612197826113c9565b612179565b82525050565b6000819050919050565b6121bd6121b8826115f1565b6121a2565b82525050565b60008160f81b9050919050565b60006121db826121c3565b9050919050565b6121f36121ee82611ffe565b6121d0565b82525050565b61220a6122058261138d565b612179565b82525050565b600061221c828961218b565b60148201915061222c82886121ac565b60208201915061223c82876121e2565b60018201915061224c82866121ac565b60208201915061225c82856121f9565b60148201915061226c82846121ac565b602082019150819050979650505050505050565b7f4f776e61626c653a206e6577206f776e657220697320746865207a65726f206160008201527f6464726573730000000000000000000000000000000000000000000000000000602082015250565b60006122dc602683611b46565b91506122e782612280565b604082019050919050565b6000602082019050818103600083015261230b816122cf565b9050919050565b600060608201905061232760008301866113db565b61233460208301856113db565b61234160408301846115fb565b949350505050565b600060a08201905061235e600083018861139f565b61236b60208301876113db565b61237860408301866115fb565b61238560608301856113db565b61239260808301846115fb565b9695505050505050565b600081905092915050565b7f19457468657265756d205369676e6564204d6573736167653a0a333200000000600082015250565b60006123dd601c8361239c565b91506123e8826123a7565b601c82019050919050565b6000819050919050565b61240e61240982611419565b6123f3565b82525050565b600061241f826123d0565b915061242b82846123fd565b60208201915081905092915050565b7f4f776e61626c653a2063616c6c6572206973206e6f7420746865206f776e6572600082015250565b6000612470602083611b46565b915061247b8261243a565b602082019050919050565b6000602082019050818103600083015261249f81612463565b9050919050565b7f496e697469616c697a61626c653a20636f6e7472616374206973206e6f74206960008201527f6e697469616c697a696e67000000000000000000000000000000000000000000602082015250565b6000612502602b83611b46565b915061250d826124a6565b604082019050919050565b60006020820190508181036000830152612531816124f5565b905091905056fea2646970667358221220cdc8921f58c51d122f6890aba9325214b8332b5d09d2acb090f8afd46fed697e64736f6c63430008110033",
  "devdoc": {
    "kind": "dev",
    "methods": {
      "owner()": {
        "details": "Returns the address of the current owner."
      },
      "renounceOwnership()": {
        "details": "Leaves the contract without owner. It will not be possible to call `onlyOwner` functions anymore. Can only be called by the current owner. NOTE: Renouncing ownership will leave the contract without an owner, thereby removing any functionality that is only available to the owner."
      },
      "transferOwnership(address)": {
        "details": "Transfers ownership of the contract to a new account (`newOwner`). Can only be called by the current owner."
      }
    },
    "version": 1
  },
  "userdoc": {
    "kind": "user",
    "methods": {
      "depositId()": {
        "notice": "unique ID assigned to each deposit"
      },
      "totalValidators()": {
        "notice": "This variable store the total validators in the sidechain"
      },
      "validators(address)": {
        "notice": "This mapping tells us if an sidechain account is a validator or not"
      }
    },
    "version": 1
  },
  "storageLayout": {
    "storage": [
      {
        "astId": 138,
        "contract": "contracts/Bridge.sol:Bridge",
        "label": "_initialized",
        "offset": 0,
        "slot": "0",
        "type": "t_uint8"
      },
      {
        "astId": 141,
        "contract": "contracts/Bridge.sol:Bridge",
        "label": "_initializing",
        "offset": 1,
        "slot": "0",
        "type": "t_bool"
      },
      {
        "astId": 625,
        "contract": "contracts/Bridge.sol:Bridge",
        "label": "__gap",
        "offset": 0,
        "slot": "1",
        "type": "t_array(t_uint256)50_storage"
      },
      {
        "astId": 10,
        "contract": "contracts/Bridge.sol:Bridge",
        "label": "_owner",
        "offset": 0,
        "slot": "51",
        "type": "t_address"
      },
      {
        "astId": 130,
        "contract": "contracts/Bridge.sol:Bridge",
        "label": "__gap",
        "offset": 0,
        "slot": "52",
        "type": "t_array(t_uint256)49_storage"
      },
      {
        "astId": 713,
        "contract": "contracts/Bridge.sol:Bridge",
        "label": "EPIC",
        "offset": 0,
        "slot": "101",
        "type": "t_contract(IERC20)704"
      },
      {
        "astId": 716,
        "contract": "contracts/Bridge.sol:Bridge",
        "label": "USDC",
        "offset": 0,
        "slot": "102",
        "type": "t_contract(IERC20)704"
      },
      {
        "astId": 723,
        "contract": "contracts/Bridge.sol:Bridge",
        "label": "isNonceProcessed",
        "offset": 0,
        "slot": "103",
        "type": "t_mapping(t_address,t_mapping(t_uint256,t_bool))"
      },
      {
        "astId": 726,
        "contract": "contracts/Bridge.sol:Bridge",
        "label": "totalValidators",
        "offset": 0,
        "slot": "104",
        "type": "t_uint8"
      },
      {
        "astId": 731,
        "contract": "contracts/Bridge.sol:Bridge",
        "label": "validators",
        "offset": 0,
        "slot": "105",
        "type": "t_mapping(t_address,t_bool)"
      },
      {
        "astId": 740,
        "contract": "contracts/Bridge.sol:Bridge",
        "label": "validatorSigned",
        "offset": 0,
        "slot": "106",
        "type": "t_mapping(t_address,t_mapping(t_uint256,t_mapping(t_address,t_bool)))"
      },
      {
        "astId": 743,
        "contract": "contracts/Bridge.sol:Bridge",
        "label": "depositId",
        "offset": 0,
        "slot": "107",
        "type": "t_uint256"
      }
    ],
    "types": {
      "t_address": {
        "encoding": "inplace",
        "label": "address",
        "numberOfBytes": "20"
      },
      "t_array(t_uint256)49_storage": {
        "base": "t_uint256",
        "encoding": "inplace",
        "label": "uint256[49]",
        "numberOfBytes": "1568"
      },
      "t_array(t_uint256)50_storage": {
        "base": "t_uint256",
        "encoding": "inplace",
        "label": "uint256[50]",
        "numberOfBytes": "1600"
      },
      "t_bool": {
        "encoding": "inplace",
        "label": "bool",
        "numberOfBytes": "1"
      },
      "t_contract(IERC20)704": {
        "encoding": "inplace",
        "label": "contract IERC20",
        "numberOfBytes": "20"
      },
      "t_mapping(t_address,t_bool)": {
        "encoding": "mapping",
        "key": "t_address",
        "label": "mapping(address => bool)",
        "numberOfBytes": "32",
        "value": "t_bool"
      },
      "t_mapping(t_address,t_mapping(t_uint256,t_bool))": {
        "encoding": "mapping",
        "key": "t_address",
        "label": "mapping(address => mapping(uint256 => bool))",
        "numberOfBytes": "32",
        "value": "t_mapping(t_uint256,t_bool)"
      },
      "t_mapping(t_address,t_mapping(t_uint256,t_mapping(t_address,t_bool)))": {
        "encoding": "mapping",
        "key": "t_address",
        "label": "mapping(address => mapping(uint256 => mapping(address => bool)))",
        "numberOfBytes": "32",
        "value": "t_mapping(t_uint256,t_mapping(t_address,t_bool))"
      },
      "t_mapping(t_uint256,t_bool)": {
        "encoding": "mapping",
        "key": "t_uint256",
        "label": "mapping(uint256 => bool)",
        "numberOfBytes": "32",
        "value": "t_bool"
      },
      "t_mapping(t_uint256,t_mapping(t_address,t_bool))": {
        "encoding": "mapping",
        "key": "t_uint256",
        "label": "mapping(uint256 => mapping(address => bool))",
        "numberOfBytes": "32",
        "value": "t_mapping(t_address,t_bool)"
      },
      "t_uint256": {
        "encoding": "inplace",
        "label": "uint256",
        "numberOfBytes": "32"
      },
      "t_uint8": {
        "encoding": "inplace",
        "label": "uint8",
        "numberOfBytes": "1"
      }
    }
  }
}